:020000040800F2
:1000000000000220610E0008DD0D0008DF0D000871
:10001000E10D0008E30D0008E50D000800000000F8
:10002000000000000000000000000000E70D0008D4
:10003000E90D000800000000EB0D0008ED0D0008C0
:10004000B10E0008B10E0008B10E0008B10E000894
:10005000B10E0008B10E0008DD190008011A0008F1
:10006000251A0008491A00086D1A0008B10E000888
:10007000B10E0008B10E0008B10E0008B10E000864
:10008000B10E0008B10E0008B10E0008B10E000854
:10009000B10E0008B10E0008B10E0008911A000858
:1000A000B10E0008B10E0008B10E0008B10E000834
:1000B000B10E0008B10E0008B10E0008B10E000824
:1000C000B10E0008B10E0008B10E0008B10E000814
:1000D000B10E0008B10E0008B10E0008B10E000804
:1000E000C91A0008B10E0008B10E0008B10E0008D0
:1000F000B10E0008B10E0008B10E0008B10E0008E4
:10010000B10E0008B10E0008B10E0008B10E0008D3
:10011000B10E0008B10E0008B10E0008B10E0008C3
:10012000B10E0008B10E0008B10E0008B10E0008B3
:10013000B10E0008B10E0008B10E0008B10E0008A3
:10014000B10E0008B10E0008B10E0008B10E000893
:10015000B10E0008B10E0008B10E0008B10E000883
:10016000B10E0008B10E0008B10E0008B10E000873
:10017000B10E0008B10E0008B10E0008000000002A
:08018000B10E0008B10E0008E9
:1001A00053B94AB9002908BF00281CBF4FF0FF31DE
:1001B0004FF0FF3000F0E2B8ADF1080C6DE904CE6D
:1001C00001F00CFEDDF804E0DDE9022304B0704725
:1001D00000F1340191E838009C46A6464CF8045DD5
:1001E00090E8FF0FE54600BD90EC210B704700BF83
:1001F00080EC210B704700BF90EC200B704700BFD4
:1002000080EC200B704700BFD0EC200B704700BF84
:10021000C0EC200B704700BFF0EC0201F0EC0211C3
:10022000F0EC0221F0EC0231F0EC0241F0EC025172
:10023000F0EC0261F0EC0271F0EC0281F0EC029162
:10024000F0EC02A1F0EC02B1F0EC02C1F0EC02D152
:10025000F0EC02E1F0EC02F1704700BFE0EC0201CB
:10026000E0EC0211E0EC0221E0EC0231E0EC0241B2
:10027000E0EC0251E0EC0261E0EC0271E0EC0281A2
:10028000E0EC0291E0EC02A1E0EC02B1E0EC02C192
:10029000E0EC02D1E0EC02E1E0EC02F1704700BFDB
:1002A000B0FC0181B0FC0191B0FC01A1B0FC01B136
:1002B000704700BFA0FC0181A0FC0191A0FC01A13E
:1002C000A0FC01B1704700BFEC4600B52DE900501D
:1002D0002DE9FF1F4FF000032DE90C0001A902F0EA
:1002E00037F8DDF840E012B0704700BFEC4600B5CB
:1002F0002DE900502DE9FF1F4FF000032DE90C0000
:1003000001A902F061F8DDF840E012B0704700BFCB
:10031000EC4600B52DE900502DE9FF1F4FF000031A
:100320002DE90C0001A902F071F8DDF840E012B0EF
:10033000704700BFEC4600B52DE900502DE9FF1FC6
:100340004FF000032DE90C0001AB02F035F8DDF8A9
:1003500040E012B0704700BFEC4600B52DE90050F8
:100360002DE9FF1F4FF000032DE90C0001AA02F058
:10037000A5F8DDF840E012B0704700BF704700BF3D
:1003800002780B78012A28BF9A4240F0D8806DE9A4
:10039000044540EA0104CDE902676FF0000C4FEA22
:1003A00044721AB380EA010414F0070F6BD100F015
:1003B000070420F0070004F0030521F007014FEACD
:1003C000C505F0E8042314F0040FF1E804670CFA03
:1003D00005F462EA040266EA04060BD063EA040349
:1003E000624667EA0407664604E000BFF0E80423BB
:1003F000F1E8046782FA4CF582EA0604A4FA8CF468
:100400006CBB83FA4CF583EA0705A5FA8CF595B920
:1004100050E9022351E9026782FA4CF582EA0604A8
:10042000A4FA8CF483FA4CF583EA0705A5FA8CF557
:100430002543DBD09CB92DBAB5FA85F424F0070426
:1004400027FA04F1DDE9026723FA04F303F0FF0061
:1004500001F0FF01FDE80445A0EB0100704724BA5C
:10046000B4FA84F424F0070426FA04F1DDE9026703
:1004700022FA04F202F0FF0001F0FF01FDE804455A
:10048000A0EB0100704714F0030F3CD110F00304FF
:1004900028D150F8082B51F8083B82FA4CF582EA33
:1004A0000305A5FA8CF55DB950F8042C51F8043C0D
:1004B00082FA4CF582EA0305A5FA8CF5002DE8D006
:1004C0002DBAB5FA85F424F0070423FA04F122FAD0
:1004D00004F202F0FF0001F0FF01FDE80445A0EB8B
:1004E000010070474FEAC40420F0030050F8082BC5
:1004F00021F0030151F8083B0CFA04F462EA04020B
:1005000063EA0403C9E710F003041DD0A1EB040162
:1005100020F00300E40750F8042B06D012D28B78A9
:100520005FFAA2F4E41A06D12BB1CB785FFAB2F4E9
:10053000E41A00D133B920465DF8104B7047A2EBA6
:100540000300704701F1040150F8042BCC0721F09F
:10055000030151F8043B48D824D222F07F4482FAA8
:100560004CF594EA1325A5FA8CF50AD165B951F832
:10057000043B84EA0204B4EB036F0ED150F8042B61
:10058000EBE74FEA132355E035F07F454DD108786E
:10059000FDE80445C0F1000070474FEA126203F025
:1005A000FF0347E002EA1C4482FA4CF594EA134543
:1005B000A5FA8CF50AD165B951F8043B84EA020426
:1005C000B4EB034F0CD150F8042BEBE74FEA134385
:1005D00030E015EA1C4528D10B884FEA124229E089
:1005E0004FEA124203EA1C4324E002F0FF0482FABD
:1005F0004CF594EA1365A5FA8CF50AD165B951F862
:10060000043B84EA0204B4EB032F09D150F8042B15
:10061000EBE74FEA13630DE015F0FF0F05D10B6810
:100620004FEA122223F07F4304E04FF00000FDE880
:100630000445704712BA1BBA82FA4CF482EA0304EA
:10064000A4FA8CF5B5FA85F402FA04F203FA04F37D
:100650004FEA1260FDE80445A0EB1360704700BF4D
:10066000844641EA000313F003036DD1403A41D3BD
:1006700051F8043B40F8043B51F8043B40F8043B7C
:1006800051F8043B40F8043B51F8043B40F8043B6C
:1006900051F8043B40F8043B51F8043B40F8043B5C
:1006A00051F8043B40F8043B51F8043B40F8043B4C
:1006B00051F8043B40F8043B51F8043B40F8043B3C
:1006C00051F8043B40F8043B51F8043B40F8043B2C
:1006D00051F8043B40F8043B51F8043B40F8043B1C
:1006E00051F8043B40F8043B51F8043B40F8043B0C
:1006F000403ABDD2303211D351F8043B40F8043BAC
:1007000051F8043B40F8043B51F8043B40F8043BEB
:1007100051F8043B40F8043B103AEDD20C3205D3BB
:1007200051F8043B40F8043B043AF9D2043208D0B3
:10073000D2071CBF11F8013B00F8013B01D30B8825
:1007400003806046704700BF082A13D38B078DD003
:1007500010F003038AD0C3F10403D21ADB071CBFD5
:1007600011F8013B00F8013B80D331F8023B20F83F
:10077000023B7BE7043AD9D3013A11F8013B00F878
:10078000013BF9D20B7803704B7843708B78837000
:10079000604670470348044B834202D0034B03B1C9
:1007A00018477047940500209405002000000000C1
:1007B0000548064B1B1AD90F01EBA301491002D0C3
:1007C000034B03B11847704794050020940500209F
:1007D0000000000010B5064C237843B9FFF7DAFF9C
:1007E000044B13B10448AFF300800123237010BD04
:1007F0009405002000000000A033000808B5054B58
:100800001BB105490548AFF30080BDE80840FFF77C
:10081000CFBF00BF0000000098050020A0330008F3
:1008200019B1C36801221A607047C36800221A60B8
:1008300070470000044BDB681A6812B901221A6085
:10084000704700221A607047C006002019B1C368C3
:1008500001221A607047C36800221A6070470000C6
:100860003C4B1B6813F0010F12D13A4B01221A6066
:10087000394B1B681433394A3949116053600A21D6
:1008800011725B0103F184432833D360354B13604D
:10089000354B1B6813F0010F12D1334B01221A6044
:1008A000324B1B681033324A2D49116053600221CC
:1008B00011725B0103F184430833D3602D4B136045
:1008C0002D4B1B6813F0010F12D12B4B01221A6024
:1008D0002A4B1B6814332A4A2149116053600921AD
:1008E00011725B0103F184432433D360254B136001
:1008F000254B1B6813F0010F12D1234B01221A6004
:10090000224B1B680C33224A1549116053600321A6
:1009100011725B0103F184430C33D3601D4B1360F0
:100920001D4B1B6813F0010F12D11B4B01221A60E3
:10093000164B1B680C33194A094911605360022198
:1009400011725B0103F184430833D360144B1360CD
:10095000704700BF7C06002014000020C006002065
:10096000DC34000800350008780600201000002064
:10097000B00600200C350008740600200800002096
:10098000A006002018350008700600202806002068
:1009900090060020E83400086C0600208006002045
:1009A000F434000819B1C36801221A607047C368A3
:1009B00000221A607047000070B182B000230193DA
:1009C000084B5A6C42F010025A645B6C03F010033F
:1009D0000193019B02B07047024A536C23F010034D
:1009E000536470470038024010B594B0044630227A
:1009F000002108A802F030FA002303930493059322
:100A00000693079301932F4A116C41F080511164B2
:100A1000126C02F080520192019A02932A4B1A68DA
:100A200042F480421A601B6803F480430293029BE5
:100A3000012308934FF48033099302230E934FF45C
:100A400080030F932368119363681093A368129334
:100A5000E368139308A800F0CFFB10B1012014B095
:100A600010BD0F23039302220492002305934FF439
:100A7000A05306934FF480530793144B01215961FF
:100A800004219961DA61E2681A62052103A800F085
:100A900017FE08B10120E2E7032000F07DFA0121F2
:100AA000204601F02DF800F03DFA41F20103984292
:100AB00001D00020D3E7064A136843F48073136023
:100AC0000020CCE7003802400070004018070020EA
:100AD000003C024082B000230193064B1A6B42F0A7
:100AE00010021A631B6B03F010030193019B02B009
:100AF000704700BF0038024082B000230193064BCC
:100B00001A6B42F001021A631B6B03F0010301939D
:100B1000019B02B0704700BF003802400B4B0C4AEB
:100B20001A60586000229A60DA601A619A610C2299
:100B30005A61084BDB681A680AB901221A60064B31
:100B4000DB681A680AB901221A607047280600207B
:100B500000100140900600208006002070B182B095
:100B600000230193084B1A6B42F020021A631B6B9F
:100B700003F020030193019B02B07047024A136BFC
:100B800023F02003136370470038024008B504497E
:100B9000044B186800F036FA034B40221A6008BD77
:100BA000EC0500200C00002000E100E008B50A463A
:100BB000044B054959600146062000F0FFF9FFF794
:100BC000E5FF08BDEC05002000001110054B1B6877
:100BD0001A6812F0800FF9D058601A6812F0400FAE
:100BE000FBD070472806002058B170B50D46064668
:100BF000002403E0305DFFF7E9FF0134A542F9DC92
:100C000070BD704710B50A4B4FF400741C6001248E
:100C10005C60034600B923460548C360816002B9A1
:100C2000FF2203490A61034B186800F0EBF910BD7D
:100C3000D80500200800002010B50A4B4FF40074BE
:100C40001C6002245C60034600B901230548C360B0
:100C5000816002B9FF2203490A61034B186800F062
:100C6000D1F910BDC40500200400002010B50A4BC6
:100C70004FF480641C6002245C60034600B90123C9
:100C80000548C360816002B9FF2203490A61034B32
:100C9000186800F0B7F910BDB00500200000002072
:100CA00070B504460D461646FFF7C6FF3246294684
:100CB0002046FFF7DBFF70BD38B53648FFF794FEDE
:100CC000354B1868354BA3FB0030800900F04AFF14
:100CD0000120FFF743FF002211461046FFF792FF65
:100CE0002F494FF480630B6001244C60CC602D4B86
:100CF000186800F087F9FFF7EDFE2B4904230B601D
:100D000000254D608C60294B186800F07BF9FFF7D7
:100D1000F3FE27490C604D6002238B60254B186859
:100D200000F070F903210846FFF740FF224B234AE9
:100D30001A602046FFF740FE072221460320FFF7F6
:100D4000AFFF4FF4E130FFF7E9FE1D4800F017FE5A
:100D50000D211C48FFF748FF05E000221A604FF400
:100D60007A7000F0F5FE184BDB681B683BB1174B3F
:100D7000DB681A68002AF0D101221A60EFE7144BF1
:100D8000DB681A6812B901221A60E8E700221A60CB
:100D9000E5E700BF2400002018070020D34D6210B3
:100DA000140600201400002000060020100000207F
:100DB000EC0500200C000020D806002035080008B3
:100DC00028060020B8330008B0060020A006002046
:100DD000C006002008B5FFF743FD08BDFEE7FEE7AB
:100DE000FEE7FEE7FEE770477047704708B500F082
:100DF00087F808BD0120704708B502F0D5F8162322
:100E000003604FF0FF3008BD08B54FF0FF31FFF72A
:100E1000F3FFFEE710B503460C4A0D490D48006884
:100E200040B10C4800680344521A934206D8094A5C
:100E3000136010BD0748084C0460F2E702F0B4F8F4
:100E40000C2303604FF0FF30F3E700BF00000220E7
:100E500000040000D0060020500A00207047000067
:100E6000DFF834D00D480E490E4A002302E0D45872
:100E7000C4500433C4188C42F9D30B4A0B4C0023E2
:100E800001E013600432A242FBD3FFF7E7FF02F058
:100E900091F8FFF711FF70470000022000000020CA
:100EA000940500209437000894050020500A002083
:100EB000FEE7000010B504460E4B1A784FF47A7323
:100EC000B3FBF2F30C4A1068B0FBF3F000F086F8C5
:100ED00068B90F2C01D901200AE0002221464FF009
:100EE000FF3000F06BF8054B1C60002000E0012093
:100EF00010BD00BF1C0000201800002020000020B2
:100F0000034A1168034B1B780B441360704700BF02
:100F1000D40600201C000020014B1868704700BF59
:100F2000D4060020014B1868000C7047002004E034
:100F3000002808DB0901C9B200F1604000F56140FA
:100F400080F80013704700F00F000901C9B2014B8F
:100F50001954704714ED00E000B500F00700C0F12F
:100F6000070CBCF1040F28BF4FF0040C031D062B27
:100F70000FD9C31E4FF0FF3E0EFA0CF021EA00011C
:100F800099400EFA03FE22EA0E0241EA02005DF8E1
:100F900004FB0023EEE70000074AD36823F4E06374
:100FA0001B041B0C000200F4E060034343F0BF632A
:100FB00043F40033D360704700ED00E010B5044601
:100FC000054BD868C0F30220FFF7C6FF0146204654
:100FD000FFF7AEFF10BD00BF00ED00E00138B0F13B
:100FE000807F0BD24FF0E0235861054AF02182F850
:100FF00023100020986107221A6170470120704772
:1010000000ED00E000230F2B00F2EC8030B583B040
:1010100068E085684FEA430E032404FA0EF425EADB
:101020000405CC6804FA0EF42C438460446824EA76
:1010300002044A68C2F300129A40224342605FE011
:10104000DC08083450F8242003F00705AD004FF009
:101050000F0E0EFA05FE22EA0E0E0A69AA4042EAB7
:101060000E0240F824205FE0072200E0002202FA8E
:101070000EF22A4302345C4D45F824205B4A146882
:101080006FEA0C0224EA0C05D1F804E01EF4803F5C
:1010900001D04CEA0405554C2560646802EA040559
:1010A000D1F804E01EF4003F01D04CEA04054F4C97
:1010B0006560A46802EA0405D1F804E01EF4801F0C
:1010C00001D04CEA0405494CA560E46822404D6813
:1010D00015F4001F01D04CEA0402444CE2600133D5
:1010E0000F2B7DD801229A400C6804EA020C32EAE8
:1010F0000404F4D14C6804F00304013C012C88D9A9
:101100004A6802F00302032A09D0C4685D00032282
:10111000AA4024EA02048A68AA402243C2604A68BC
:1011200002F00302022A8BD004684FEA430E032226
:1011300002FA0EF224EA02044A6802F0030202FAFA
:101140000EF2224302604A6812F0805FC7D000228C
:101150000192274A546C44F480445464526C02F463
:1011600080420192019A9C08A51C1F4A52F8255002
:1011700003F0030E4FEA8E0E0F2202FA0EF225EA5A
:1011800002051C4A90423FF471AF02F58062904222
:101190001AD002F58062904218D002F58062904227
:1011A00016D002F58062904214D002F5806290421F
:1011B00012D002F58062904210D002F58062904217
:1011C0003FF452AF082252E7012250E702224EE7D5
:1011D00003224CE704224AE7052248E7062246E7B5
:1011E00003B030BD704700BF00380140003C0140F3
:1011F0000038024000000240002800F0E08170B595
:1012000082B00446036813F0010F3BD09F4B9B68EC
:1012100003F00C03042B2CD09C4B9B6803F00C03B5
:10122000082B21D06368B3F5803F4FD0B3F5A02FD2
:1012300052D0964B1A6822F480321A601A6822F44F
:1012400080221A606368002B50D0FFF765FE0546C8
:101250008E4B1B6813F4003F14D1FFF75DFE401B5B
:101260006428F5D90320B1E1884B5B6813F4800F43
:10127000D8D0864B1B6813F4003F03D06368002B63
:1012800000F09F81236813F0020F54D07F4B9B68BE
:1012900013F00C0F3ED07D4B9B6803F00C03082B22
:1012A00033D0E368002B68D0794B01221A60FFF736
:1012B00033FE0546754B1B6813F0020F54D1FFF740
:1012C0002BFE401B0228F5D903207FE16F4A1368EB
:1012D00043F480331360B5E76C4B1A6842F4802204
:1012E0001A601A6842F480321A60ABE7FFF714FE06
:1012F0000546664B1B6813F4003FC3D0FFF70CFE96
:10130000401B6428F5D9032060E1604B5B6813F44F
:10131000800FC6D15D4B1B6813F0020F03D0E3684A
:10132000012B40F05081594A136823F0F8032169DA
:1013300043EAC1031360236813F0080F42D06369C6
:101340006BB3534B0122C3F8802EFFF7E5FD054632
:101350004E4B5B6F13F0020F34D1FFF7DDFD401BE6
:101360000228F5D9032031E1484A136823F0F80335
:10137000216943EAC1031360DDE7454B00221A608F
:10138000FFF7CAFD0546414B1B6813F0020FD2D090
:10139000FFF7C2FD401B0228F5D9032016E13C4BA4
:1013A0000022C3F8802EFFF7B7FD0546374B5B6F71
:1013B00013F0020F06D0FFF7AFFD401B0228F5D94E
:1013C000032003E1236813F0040F77D02F4B1B6C2D
:1013D00013F0805F33D1002301932C4B1A6C42F041
:1013E00080521A641B6C03F080530193019B01250A
:1013F000284B1B6813F4807F23D0A368012B34D0C3
:10140000052B38D0214B1A6F22F001021A671A6F90
:1014100022F004021A67A368002B3DD0FFF77CFD81
:1014200006461A4B1B6F13F0020F46D1FFF774FDEF
:10143000801B41F288339842F3D90320C6E000258F
:10144000D6E7144A136843F480731360FFF764FD12
:101450000646104B1B6813F4807FCED1FFF75CFD6E
:10146000801B0228F5D90320B0E0084A136F43F02F
:1014700001031367CFE7054B1A6F42F004021A67A6
:101480001A6F42F001021A67C5E700BF0038024038
:101490000000474200700040FFF73EFD0646524BF9
:1014A0001B6F13F0020F08D0FFF736FD801B41F2CF
:1014B00088339842F3D9032088E0EDB9A369002B63
:1014C00000F08380484A926802F00C02082A51D04A
:1014D000022B17D0454B00221A66FFF71DFD04466C
:1014E000414B1B6813F0007F42D0FFF715FD001B36
:1014F0000228F5D9032069E03B4A136C23F080539E
:101500001364DBE7394B00221A66FFF705FD054639
:10151000354B1B6813F0007F06D0FFF7FDFC401B26
:101520000228F5D9032051E0E369226A1343626A75
:1015300043EA8213A26A5208013A43EA0243E26A8A
:1015400043EA0263284A5360284B01221A66FFF7D8
:10155000E3FC0446244B1B6813F0007F06D1FFF721
:10156000DBFC001B0228F5D903202FE000202DE032
:1015700000202BE0012B2BD01B4B5B6803F4800178
:10158000E269914226D103F03F02216A8A4223D1C7
:10159000616A47F6C0721A40B2EB811F1ED103F494
:1015A0004031A26A5208013AB1EB024F18D103F060
:1015B0007063E26AB3EB026F14D1002006E00120F1
:1015C0007047012002E0012000E0002002B070BD61
:1015D0000120FBE70120F9E70120F7E70120F5E70B
:1015E0000120F3E70120F1E7003802400000474204
:1015F00008B5314B9B6803F00C03082B01D02F4832
:1016000008BD2D4B5A6802F03F025B6813F4800F4F
:101610002CD0294B5868C0F388104FEA401CBCEB13
:10162000000C6EEB0E0E4FEA8E1343EA9C634FEAFA
:101630008C11B1EB0C0163EB0E03DB0043EA517339
:10164000C90011EB000C43F10003590200234FEADB
:101650004C2041EADC51FEF7A3FD174B5B68C3F356
:10166000014301335B00B0FBF3F0C9E7124B58684C
:10167000C0F388104FEA401CBCEB000C6EEB0E0E62
:101680004FEA8E1343EA9C634FEA8C11B1EB0C01D5
:1016900063EB0E03DB0043EA5173C90011EB000C4E
:1016A00043F10003590200234FEA4C2041EADC5188
:1016B000FEF776FDD1E700BF0038024000127A0045
:1016C000002800F09B8070B50D4604464F4B1B6808
:1016D00003F007038B4208D2CBB24C4A1370136855
:1016E00003F007038B4240F08B80236813F0020F56
:1016F00017D013F0040F04D0454A936843F4E05325
:101700009360236813F0080F04D0414A936843F4B0
:10171000604393603E4A936823F0F003A1680B4353
:101720009360236813F0010F32D06368012B21D03E
:101730009A1E012A25D9364A126812F0020F61D08A
:1017400033498A6822F0030213438B60FFF7E4FBFE
:1017500006462F4B9B6803F00C036268B3EB820FC5
:1017600016D0FFF7D9FB801B41F288339842F0D99D
:10177000032042E0264A126812F4003FE0D1012023
:101780003BE0234A126812F0007FD9D1012034E0F7
:101790001E4B1B6803F00703AB4207D9EAB21B4B91
:1017A0001A701B6803F00703AB422DD1236813F0B6
:1017B000040F06D0164A936823F4E053E1680B4304
:1017C0009360236813F0080F07D0114A936823F43D
:1017D0006043216943EAC1039360FFF709FF0C4BA3
:1017E0009B68C3F303130B4AD35CD8400A4B1860C1
:1017F0000A4B1868FFF75EFB002070BD01207047A0
:101800000120FAE70120F8E70120F6E7003C02405A
:101810000038024024350008180000202000002075
:10182000014B1868704700BF1800002008B5FFF78B
:10183000F7FF044B9B68C3F38223034AD35CD84071
:1018400008BD00BF003802401C35000808B5FFF78E
:10185000E7FF044B9B68C3F34233034AD35CD84091
:1018600008BD00BF003802401C35000810B5044612
:101870000268136923F44053C1680B431361836802
:1018800002691A4343691A43C3691A430168CB6862
:1018900023F4164323F00C031343CB60026853690F
:1018A00023F4407381690B4353610368314A9342C7
:1018B00006D002F58062934202D0FFF7B7FF01E045
:1018C000FFF7C4FFE369B3F5004F29D000210318E7
:1018D00049411B1841F10001C90041EA5371DB0085
:1018E000181863684FEA83024FEA937341F10001CD
:1018F000FEF756FC204AA2FB00314909642303FB92
:1019000011031B013233A2FB03235B0903F0F00236
:1019100002EB011203F00F03216813448B6010BD2A
:101920000023021843EB0301121841F10001C90022
:1019300041EA5271D200101841F100016268921818
:101940005B41FEF72DFC0C4AA2FB003149096423E0
:1019500003FB1103DB003233A2FB03235B095A00B4
:1019600002F4F87202EB011203F00703216813443A
:101970008B60D4E7001001401F85EB51704758B3CE
:1019800010B5044690F83D300BB3242384F83D3065
:101990002268D36823F40053D3602046FFF766FF24
:1019A0002268136923F4904313612268536923F07A
:1019B0002A0353612268D36843F40053D3600020A4
:1019C0002064202384F83D3084F83E3010BD80F838
:1019D0003C30FFF7D3FFD8E70120704708B5064B2E
:1019E0005B6913F0010F06D0034B01225A61034BD0
:1019F0001B6803B1984708BD003C0140D806002091
:101A000008B5064B5B6913F0020F06D0034B0222A8
:101A10005A61034B5B6803B1984708BD003C014025
:101A2000D806002008B5064B5B6913F0040F06D0FA
:101A3000034B04225A61034B9B6803B1984708BDCE
:101A4000003C0140D806002008B5064B5B6913F046
:101A5000080F06D0034B08225A61034BDB6803B121
:101A6000984708BD003C0140D806002008B5064B49
:101A70005B6913F0100F06D0034B10225A61034B21
:101A80001B6903B1984708BD003C0140D8060020FF
:101A900010B5052400E00134092C10DC04F00F021D
:101AA00001239340064A52691A42F4D0044A536112
:101AB000044B53F82430002BEDD09847EBE710BDD2
:101AC000003C0140D806002010B50A2401E09847E8
:101AD00001340F2C0FDC04F00F0201239340064A5F
:101AE00052691A42F4D0044A5361044B53F824302B
:101AF000002BECD1ECE710BD003C0140D8060020E3
:101B0000012919D00268104B03FB02F24368B2FBB3
:101B1000F3F28168B2FBF1F10C4B196059609869DE
:101B2000B1FBF0F09860D869B1FBF0F1D960196AA7
:101B3000B2FBF1F21A6170470268034B03FB02F239
:101B40004368B2FBF3F2E4E700127A0018070020C2
:101B500005E04FF0E0231B69C3F30043C01A0028DF
:101B6000F7D170470138B0F1807F0AD24FF0E023FF
:101B70005861044AF02182F8231000229A6107225A
:101B80001A61704700ED00E070B5036884B000246E
:101B90009E690394102315460293CDE900446B46D9
:101BA0001268B0479DF8043003F00603062B03BF0C
:101BB000009B2B600120204604B070BD009890422D
:101BC0000CBF06200120704710B5034B036004468C
:101BD00000F0E8F8204610BD6C35000810B5054B44
:101BE0000360044600F0DEF82046082100F04AF8C1
:101BF000204610BD6C3500082DE9F041069F08997C
:101C0000099E8F42044690461D460CD02946204628
:101C100000F0CCF820B10123376086F80480B3715E
:101C20000020BDE8F081079900F0C0F80028EDD051
:101C300086F805800020BDE8F08100BF38B5154664
:101C40001C4600F0B3F800B938BD08220623256011
:101C5000E260237138BD00BF2DE9F041064617460A
:101C60001D460C4600F0A2F848B9032D07D823689A
:101C70003A46314620465B69BDE8F0411847BDE869
:101C8000F08100BF00F0A8B810B5034B0360044614
:101C9000FFF79AFF204610BDCC35000810B5054B64
:101CA00003600446FFF790FF20460C21FFF7EAFF90
:101CB000204610BDCC35000870B582B00446069EA3
:101CC00096420D4609D0A06804680696246A294603
:101CD000A44602B0BDE870406047194601920093E7
:101CE00000F064F8DDE900320028ECD0062002B0F4
:101CF00070BD00BF2DE9F04F0D4681B01946DDE9FA
:101D00000A8BDDE90CA91C460746164600F04EF882
:101D100080B9D04527D0B86823460468CDE90CA91E
:101D2000CDE90A8BE46932462946A44601B0BDE8F4
:101D3000F04F6047002DC9F8008089F804600CDB83
:101D4000A844C24514BF4FF001084FF0060889F8B7
:101D50000680002001B0BDE8F08F0235F9D10123E3
:101D600089F80630F5E75946384600F01FF8002894
:101D7000D1D089F80560ECE72DE9F04106460F4621
:101D800014461D46FFF75AFF48B9B068016822465D
:101D90008C692B463946A446BDE8F0416047BDE852
:101DA000F08100BF704700BF00207047814211D012
:101DB00008B5406803782A2B0AD049680B782A2B8B
:101DC00008BF0131FEF7DCFAB0FA80F0400908BD27
:101DD000002008BD0120704701F02AB82DE9F04726
:101DE000089D0E4604460F46002B4AD194468C456A
:101DF000B2FA82F260D942B1C2F12003974020FAD0
:101E000003F30CFA02FC1F4394404FEA1C4E1FFAE6
:101E10008CF6B7FBFEF1230C0EFB117743EA074368
:101E200001FB06F098420AD91CEB030301F1FF37CE
:101E300080F01581984240F21281023963441B1AE6
:101E4000A4B2B3FBFEF00EFB103344EA034400FBE4
:101E500006F6A6420AD91CEB040400F1FF3380F019
:101E60000081A64240F2FD806444023840EA01400D
:101E7000A41B00211DB1D4400023C5E90043BDE8E7
:101E8000F0878B4205D90DB1C5E900010021084654
:101E9000F5E7B3FA83F1002946D1B34202D3824277
:101EA00000F2F580841A66EB030201201746002D2C
:101EB000E5D0C5E90047E2E7002A40F09380A1EBB6
:101EC0000C034FEA1C471FFA8CFE0121B3FBF7F607
:101ED00007FB1630230C43EA00430EFB06F0984242
:101EE00008D91CEB030306F1FF3802D2984200F236
:101EF000D08046461B1AA4B2B3FBF7F007FB1033A1
:101F000044EA03440EFB00FEA64508D91CEB04047A
:101F100000F1FF3302D2A64500F2B6801846A4EBCA
:101F20000E0440EA0640A5E7C1F120078B4022FAE3
:101F300007FC4CEA030C06FA01FE20FA07F426FA25
:101F400007F344EA0E0400FA01F84FEA1C404FEA96
:101F50001449B3FBF0FE1FFA8CF600FB1E3349EA6E
:101F600003430EFB06F9994502FA01F20BD91CEB6B
:101F700003030EF1FF3A80F08580994540F282809C
:101F8000AEF1020E6344A3EB0909A4B2B9FBF0F36E
:101F900000FB139944EA094403FB06F6A64208D95C
:101FA0001CEB040403F1FF3068D2A64266D9023B61
:101FB000644443EA0E40A41BA0FB02E6B44273460D
:101FC000B14652D34FD05DB1B8EB030264EB0904C4
:101FD00004FA07F722FA01F31F43CC40C5E9007465
:101FE00000214CE7C2F1200120FA01F30CFA02FCB7
:101FF00026FA01F1964033434FEA1C471FFA8CFE44
:10200000B1FBF7F007FB1016190C41EA064100FB83
:102010000EF68E4204FA02F408D91CEB010100F11D
:10202000FF382DD28E422BD902386144891B9BB2D6
:10203000B1FBF7F607FB161143EA014306FB0EF16D
:10204000994208D91CEB030306F1FF3814D29942D8
:1020500012D9023E63445B1A46EA004136E739462C
:10206000EDE6184602E7F045ADD2BEEB020366EBA3
:102070000C060138B146A6E74646ECE7034698E76A
:102080004046D3E7D6467EE76444023847E7084631
:102090000DE7023E63442DE703685A004CBF43F04E
:1020A000004323F000431844704700BF2DE9F04778
:1020B00059B301F1FF380546164647464FF0000A6E
:1020C0000AEB070101EBD171491005EBC109484644
:1020D000FFF7E2FF88454FEAC104034610D004F140
:1020E0000800B342284407D8FFF7D6FF0138B042B2
:1020F00008D201F1010AE3E78A4506D04F1EDFE767
:10210000B042F9D84846BDE8F0874FF0000948468C
:10211000BDE8F087012809D0022805D0044B00282B
:102120000CBF1846002070470248704702487047AD
:10213000E5270008F5270008ED27000830B5224BF9
:1021400083B004468D1E43B301A92846AFF3008037
:10215000F0B101992A46FFF7A9FF0146C0B1FFF788
:102160009BFF4B68A064012B2BD0002B01F10400D6
:1021700025DBFFF791FF002323650368E064002B54
:1021800012DBFFF789FF03460020236103B030BD57
:1021900000230920236103B030BD0C4B0C49C91A40
:1021A000C91018460191D5E7C3F30360FFF7B2FFEA
:1021B000031E0CBF09200020236103B030BD0123A2
:1021C000DAE700230520E0E7000000005C360008A5
:1021D000843700080368DA0710B5044606D49B0765
:1021E00000F1500009D5FEF707F82368590709D513
:1021F0001A070ED5DB0613D510BDFDF7F5FF2368D2
:102200005907F5D404F1D800FDF7FEFF23681A073B
:10221000F0D404F5AC70FDF7FFFF2368DB06EBD4C8
:1022200004F5EC70BDE81040FEF73AB803460068CC
:1022300000B11844704700BF704700BF70B5044636
:102240000E46316C2046FFF779FF054688B9326C9F
:102250006261236932462146012098470828F0D060
:10226000072806D12846316CFFF7E6FF301DFDF741
:10227000AFFF00F0D5FD00BF2DE9F04701F1040CE0
:10228000C768D0F8188006469146BCE80F00ADF547
:10229000767D03AC0FC4BCE80F000FC4BCE80F0090
:1022A0000FC49CE80F0002AD4FF0000E84E80F0051
:1022B000C5F800E021E02B6C73614FF4F4722946FD
:1022C0007CA8FEF7CDF933697CAA31465046984781
:1022D0008A9BAB644946CDE90058824633460120CB
:1022E0003246B847814630BB4FF4F4727CA9284689
:1022F000FEF7B6F9BAF1080F1AD1296C3046FFF78C
:102300001DFF09F1090904465FFA89FA0028D2D0B5
:10231000AB6BAB643246CDE9005833464AF010014E
:102320000120B84738B920460DF5767DBDE8F08725
:10233000BAF1070F05D0092420460DF5767DBDE8DA
:10234000F0874846296CFFF777FF03A8FDF740FFA9
:10235000F0B5CB6BFBB001F1040C0B640E460546E7
:10236000BCE80F0001AC0FC4BCE80F000FC4BCE810
:102370000F000FC49CE80F004FF0FF3784E80F00F8
:10238000009706E02B696A462946984708280446C4
:1023900008D110992846FFF7D1FE0028F2D0092075
:1023A0007BB0F0BD6846FFF715FF062CF7D131462C
:1023B0002846FFF743FF00BFC160D96B82611964F3
:1023C00000221946FFF758BF70B5C66843690B6411
:1023D000AEB903690A4604460D46014602209847F5
:1023E000072805D008280FD129462046FFF726FFE9
:1023F0003046296CFFF720FF281DFDF7E9FE01227A
:10240000FFF73AFF00F00CFD00F00AFDC26822B1B0
:10241000CA6B0A640022FFF72FBFFFF799BF00BF06
:10242000052915D8DFE801F00A031403030501208C
:102430007047009A436C13600020704743B90F2A1D
:1024400006D800EB820200205368009A13607047A0
:102450000220704700B585B00A46002303A9009109
:102460001946FFF7DDFF039805B05DF804FB00BFD8
:10247000052915D8DFE801F00A031403030501203C
:102480007047009B1B6843640020704743B90F2AC4
:1024900006D8009B00EB82021B6853600020704747
:1024A0000220704710B584B0002303AC039200945F
:1024B0000A461946FFF7DCFF04B010BD70B5D36BB8
:1024C000ADF5107D02F1040C136405460C46BCE822
:1024D0000F000DF15C0EAEE80F00BCE80F00AEE897
:1024E0000F00BCE80F00AEE80F009CE80F004FF0B3
:1024F000FF368EE80F00169610E0FFF7D3FF214657
:1025000016A8A847034616AA0820694683B9049B63
:102510009847052806460CD0092809D02699684610
:10252000FFF70CFE03460C216A4616A8002BE4D0E8
:10253000092616A8FFF74EFE30460DF5107D70BD3A
:102540002DE9F04F1646CA6C89B00D4652F8041BAF
:10255000069200F0030C002B79D00C0C8DF81D4076
:102560000904E4B2059102EB840202218DF81C10EB
:10257000296DBCF1020F08BFAA6B11F0010809D048
:1025800005A9304600F0CEFA002856D1082009B03F
:10259000BDE8F08F1768002FF2D000F00801CDE9F8
:1025A0000118E3469A46BAF1020F4CD017885488B6
:1025B00002F10409AA6C24F001030F21304603EB59
:1025C0000208FFF747FF80453BD827F0010202EBE6
:1025D0000803834294BF00230123640004F0020433
:1025E00007F001072743012F4ED0022F35D027BB1C
:1025F000BBF1000F02D0002B40F0D38009F10402A0
:102600001768002FCFD105A93046DDF8088000F00B
:1026100089FA90B9B8F1000FB8D00F213046FFF712
:1026200019FF0E2102463046FFF73CFF6C4A0F218E
:102630003046FFF737FF072000E0092009B0BDE86A
:10264000F08F0023C9E7546802F10809B2E70902D4
:1026500005918DF81D30032188E7D9F8004024F05A
:102660000048BBF1000F47D12BB1019B002B5CD080
:10267000B8F1000F59D0002C01DA09F1040908F172
:10268000010209EB8202BBE7BBF1000F1CD1C3B111
:10269000D9F80430D9F80020991C4FEAD272CCD076
:1026A00005F158040133049400F08E8009F1040010
:1026B000FFF7BCFD04AB01462846AFF300800028BD
:1026C00059D109F108029BE70D213046FFF7C2FE00
:1026D0002C6A8442F5D1AB6A9945F2D14846FFF79E
:1026E000DBFC0F2102463046FFF7DCFE2A460021C4
:1026F0003046FFF7D7FE9EE70D213046FFF7AAFED2
:102700002F6A8742B7D1AB6A9945B4D1002404231C
:10271000C5E90B434B44C5F828806B63D9F80030FA
:10272000A34258DB01230293A9E705F15803CDF832
:102730000CB009F10407B34600241E460BE03846EE
:102740000496FFF773FD0022014604AB2846AFF361
:1027500000800437F8B9444504F10104EFD10D219C
:102760005846FFF777FE049BC5F828900246C5E956
:102770000823062062E704460D213046FFF76AFE73
:10278000049E2862022C04BFEE6205F12C06C5E906
:102790000969062052E75E46D9F80040DDF80CB022
:1027A00069E74846FFF778FC09F104030446AB6388
:1027B0002846AFF3008000283FF43FAF22460F21A8
:1027C0003046FFF76FFE36E730460D21FFF742FE39
:1027D00026462862DBE708F1010209EB82007EE76A
:1027E000000000000023FFF7ABBE00BF0123FFF78E
:1027F000A7BE00BF0223FFF7A3BE00BF2DE9F04133
:102800000646C4B01446052900F2D880DFE811F06E
:1028100012002D00D6006C0091000600836B002C86
:1028200040F0CC8053F8042B42648363002044B012
:10283000BDE8F081002B40F0C180856B1FFA84FC5D
:10284000012006F1040E00FA03F111EA0C0F2A46EA
:1028500004D052F8041B4EF8231015460133102BF8
:10286000F1D1A704E2D4B563E0E7012B4FEA1447A6
:10287000A4B200F08380052B40F0A08007EB040891
:10288000B8F1200F00F29A800F2F40F29980002CAF
:10289000CCD00268500700F11881019302AD2846A0
:1028A000FDF7B6FC4FEA440CA7F11000B16B019B99
:1028B0000CF1FF3C05EBC0000CF1010C043801EBFE
:1028C0008C0251F8044B40F8044F9142F9D1012B8E
:1028D00000F0DE800F2FB16302D822A8FDF78CFC38
:1028E0002846FDF791FCA1E7032B67D1A7B207EBC0
:1028F0001443102B4FEA144460D80368190700F101
:10290000BF8022AD2846FDF7A9FC7A00B06B05EB2D
:10291000C404531E42B1011B625844F8042B013B0E
:102920005A1CF9D100EBC700B0632846FDF774FCD0
:102930007CE7002B42D1102C40D80368DD0600F163
:10294000978022AD2846FDF7B5FCB76B29460023DA
:102950004FF0010C0CFA03F22242384603F1010356
:1029600003D050F8042B0A600746042B01F1040140
:10297000F0D1B7632846FDF793FC57E73A19102AC0
:102980001CD8102F1AD00268D00708D5304622F084
:10299000030240F8502B0193FDF72AFC019B0193A1
:1029A00022AD2846FDF724FCB26B019B002C58D1C8
:1029B0000432B2632846FDF717FC37E7022036E7FA
:1029C000B8F1100F026865D9D40772D522F0010260
:1029D00042F0020240F8502B0193FDF711FC3268DF
:1029E000019B12F0040F66D122AD28460193FDF73A
:1029F00007FC02A8FDF70CFCC7F110014900B26BFF
:102A0000019BA8F1100C4C1E05EBC70001340438E3
:102A100002EB840152F8044B40F8044F8A42F9D18A
:102A2000BCF1000F5AD0102F384638BF10204FEAA3
:102A30004C0C103802AD0CF1FF3C05EBC0003BE73D
:102A4000304622F0010242F0020240F8502B22AD43
:102A50000193FDF7D5FB2846FDF7D2FBB26B24B3FB
:102A6000019B6400013C05EBC7004FF0000CCDE773
:102A700023F01003036000F5EC70FDF71BFC60E72A
:102A800023F00803036000F5AC70FDF7E7FB38E7BF
:102A900022AD8DE7D107D3D422AD28460193FDF7AF
:102AA000AFFBB26B019B002CDBD12846FDF7A4FBEA
:102AB000BCE6540798D5304622F0040240F8D82BE3
:102AC0000193FDF7A5FB019B8EE7304622F004023F
:102AD00040F8D82B0193FDF79BFBDFE6012B3FF479
:102AE00067AF0F2FB2633FF6A1AEDEE7027A03466F
:102AF0007AB9427AA2B14168013A10B442720868C8
:102B000003220C1D1A7202025C60000E10BC1A60D7
:102B100070470068013A1A7202021A60000E70478C
:102B2000B02070472DE9F043064685B00D464FF0C2
:102B300000082846FFF7DAFFB028044600F01C81A1
:102B400007065BD500F0F003A02B1AD030D8802BFD
:102B500000F08280902B27D100F00D030D2B23D0A5
:102B600002AF002300F00F02194600973046FFF72E
:102B700057FC002300970D2219463046FFF778FCDA
:102B8000D7E7C34303F007034FF47F621A410107FD
:102B900002F47F6201D542F4804200231946304698
:102BA000FFF72CFE0028C4D0092005B0BDE8F08353
:102BB000B02B68D0C02B3DD1C62800F0CA80C728F2
:102BC00000F0DF8000F0F803C02B00F0EC80C82894
:102BD00000F0F780C928E7D12846FFF787FF0203F6
:102BE00000F00F0002F4702201300243012105239E
:102BF0003046FFF703FE00289BD0D5E78300DBB209
:102C00001F1D0DF1080900231946CDF800900D2273
:102C10003046FFF705FC029BCDF8009060064CBFE4
:102C2000DF1BFF1800230D22194630460297FFF7DD
:102C30001FFC7EE700F0F803D02BB5D100F00702AF
:102C40000132052342F4002201213046FFF7D6FD70
:102C500000283FF46EAFA7E72846FFF747FF24029E
:102C60002043B0F5004F9FD004010023A2B21946C3
:102C70003046FFF7C3FD002896D114F4004F18BF6B
:102C80004FF0010855E7A0F1B103042B00F2B58025
:102C9000DFE803F05529160C030003AA0023009275
:102CA00019460D223046FFF7BBFB42E700231A46C8
:102CB00005213046FFF7A2FD00283FF43AAF73E745
:102CC0002846FFF713FF020300F00F00013002F463
:102CD00070220123024319463046FFF78FFD00287A
:102CE0003FF427AF60E700230DF108090D221946D4
:102CF000CDF800903046FFF793FB2846FFF7F6FE2D
:102D00000206029C4FF002070BD500F07F00B8408E
:102D1000044428460294FFF7E9FE030607F107077B
:102D2000F3D4B840002304F501740444CDF80090B6
:102D30000D22194630460294FFF79AFBF9E6284621
:102D4000FFF7D4FE431EDBB20E2B02467FF625AF03
:102D50002AE72846FFF7CAFE020300F00F00013001
:102D600002F470220323024319463046FFF746FD62
:102D700000283FF4DEAE17E7B8F1000F2DD0002099
:102D800013E72846FFF7B2FE431EDBB20E2B0246C6
:102D90003FF60AAF002304213046FFF72FFD00283D
:102DA0003FF4C7AE00E700F00F020132032342F404
:102DB000202219463046FFF721FD00283FF4B9AE26
:102DC000F2E62846FFF792FE00F0F00200F00F0353
:102DD0001032013343EA023208E702AC434641466F
:102DE00000940E223046FFF71BFB0F22009443464F
:102DF00041463046FFF73CFBC1E700F0FC03B42B33
:102E00003FF4D2AE00F007020132012342F4002267
:102E100019463046FFF7F2FC00283FF48AAEC3E6BD
:102E200008B5062000F06AF80120FDF7EDFF00BFAD
:102E3000024B0146186800F063B900BF4804002047
:102E4000014800F0DFB800BFB4080020014800F0DE
:102E5000DBB800BFB4080020830730B547D0541E4C
:102E6000002A3ED0CAB2034601E0013C39D303F840
:102E7000012B9D07F9D1032C2CD9CDB205EB0525EB
:102E80000F2C05EB054535D9A4F1100222F00F0CEB
:102E900003F1100EE6444FEA121C1A46C2E900552F
:102EA000C2E9025510327245F8D10CF1010214F05A
:102EB0000C0F03EB021204F00F0C13D0ACF104035F
:102EC00023F003030433134442F8045B9342FBD121
:102ED0000CF003042CB1C9B21C4403F8011BA3423B
:102EE000FBD130BD64461346002CF4D1F9E703460C
:102EF0001446C0E71A46A446E0E700BF38B5144BB5
:102F00001F281D681ED8D5F83821044662B152F832
:102F100020304BB1012B05D0591C0FD0002142F8B5
:102F200020109847002038BD284600F029F8224696
:102F300001462846BDE8384000F00CB816232B6047
:102F4000012038BD16232B604FF0FF3038BD00BF85
:102F50004804002070B50C46084D03460026204664
:102F600011461C462E60FDF747FF431C00D070BD84
:102F70002B68002BFBD0236070BD00BFB008002081
:102F8000FDF738BF38B5074D0022044608462A60D1
:102F9000FDF740FF431C00D038BD2B68002BFBD051
:102FA000236038BDB0080020014B1868704700BF8F
:102FB0004804002070B50F4B0F4DAB42A3EB050644
:102FC00007D0B610002455F8043B01349847A642B8
:102FD000F9D800F0E5F9094D094B5E1BAB424FEA09
:102FE000A60606D0002455F8043B01349847A642B3
:102FF000F9D870BD8437000884370008843700088A
:1030000090370008704700BF704700BF082802D102
:103010004FF48050704708B5FFF7C6FF16230360D2
:103020004FF0FF3008BD00BF024B13B1024800F063
:1030300005B8704700000000F9320008002301467F
:103040001A46184600F06CB92DE9F84306460820E8
:103050008946FFF7DBFFDFF89C8005463046FFF727
:10306000EFFED8F808305F6827F00307A7F11104D6
:10307000A4EB09042C44B4FBF5F4013C05FB04F477
:10308000A54208DC00213046FFF77CFFD8F8083065
:103090003B44984205D03046FFF7D8FE0020BDE8FB
:1030A000F88361423046FFF76DFF01300FD0124ABE
:1030B000D8F808303F1B47F001075F6013683046BF
:1030C0001B1B1360FFF7C2FE0120BDE8F88300213F
:1030D0003046FFF757FFD8F80820831A0F2BDADDA8
:1030E00043F001035360054B03491B68C01A086095
:1030F000D1E700BF400000204C0700203400002032
:1031000000297CD0F8B50C460646FFF799FE54F826
:10311000043C764FA4F1080523F001016818D7F8A4
:1031200008C04268844522F0030200F08380DB0778
:10313000426000EB020C33D454F8084CDCF8043045
:103140002D1B2144AC6807F1080C644503F0010312
:1031500064D0D5F80CE0C4F80CE0CEF80840002BA1
:1031600000F0818041F001036B600160B1F5007FE8
:1031700022D27868CB080122490901338A400243F0
:1031800057F833107A6007EBC302083AC5E9021218
:1031900047F83350CD603046BDE8F840FFF756BEE3
:1031A000DCF80430DB072BD541F00103B1F5007FDB
:1031B00044F8043C0160DCD3B1F5206F4FEA5123A1
:1031C00053D28B0903F1390003F13802C300F81818
:1031D000FB580838984203D161E09B68984204D0BC
:1031E0005A6822F003028A42F7D8D868C5E902304B
:1031F0008560DD603046BDE8F840FFF727BE7047C8
:10320000114407F1080C836863453FD0C268DA6057
:10321000936041F001036B606950A7E7002B5FD119
:103220000A44D0E90213CB60996042F001036B605D
:10323000AA50B0E70A44D90707D454F8083CED1A5D
:103240001A44D5E90213CB60996042F001036B6028
:10325000274BBD601B6893429DD8264B30461968AA
:10326000FFF7F2FE97E71144CDE7142B08D9542B52
:103270001DD80B0B03F16F0003F16E02C300A6E72C
:1032800003F15C0003F15B02C300A0E741F001031E
:10329000C7E90455C5E902CC6B6069507BE77968E2
:1032A0009210012404FA02F20A437A609EE7B3F511
:1032B000AA7F06D8CB0B03F1780003F17702C30095
:1032C00085E740F25452934206D88B0C03F17D00FF
:1032D00003F17C02C3007AE74FF47E737E2276E727
:1032E00041F001036B60016055E700BF4000002022
:1032F000380000207407002038B5074D074C2C1B00
:10330000A41005D0013C55F8043D9847002CF9D194
:10331000BDE8384000F04AB89437000890370008FC
:103320002DE9F8431B4D0646286898460F469146FE
:10333000FFF768FE184B1C681CB3286865681F2DD2
:1033400022DC4EB96B1C0235636044F82570FFF730
:103350005BFE0020BDE8F88304EB85010123C1F882
:103360008890D4F88821AB401A43022EC4F88821F3
:10337000C1F80881E6D1D4F88C211A43C4F88C2115
:10338000E0E7064C1C60D8E7FFF73EFE4FF0FF3049
:10339000E0E700BF90050020BC080020C008002026
:1033A000F8B500BFF8BC08BC9E467047F8B500BF32
:0833B000F8BC08BC9E46704702
:1033B80068656C6C6F20776F726C640A000000009F
:1033C80031314269744F70657261746F7200000028
:1033D8006C350008C83300084E3653657269616C55
:1033E800494C6D3130373338313134353645453510
:1033F8005465426974450000CC350008E033000884
:10340800D83300084E3653657269616C494C6D318A
:1034180030373338313134353645453552654269B0
:1034280074450000CC3500080C340008D833000877
:103438004E344770696F494C6D31303733383738FF
:10344800303136454C683130454531304770696F09
:103458004F64724269744500CC350008383400085E
:10346800D83300084E344770696F494C6D31303796
:1034780033383736393932454C683245453130476B
:1034880070696F496472426974450000CC35000860
:103498006C340008D83300084E344770696F494CC3
:1034A8006D31303733383738303136454C68394527
:1034B8004531304770696F4F647242697445000046
:1034C800CC350008A0340008D833000800000000FC
:1034D800D833000821080008000000000034000864
:1034E8004D080008000000002C340008A509000859
:1034F80000000000603400082108000800000000F7
:10350800943400082108000800000000C8340008AE
:103518002108000800000000010203040000000068
:103528000000000001020304060708094E31305F5D
:103538005F637878616269763131375F5F636C61A8
:1035480073735F747970655F696E666F450000001C
:10355800CC350008343500080036000800000000AB
:1035680058350008C91B0008DD1B0008A91D000804
:10357800A91D0008591C0008891B00083D1C0008EB
:10358800F91B0008BD1B00084E31305F5F63787877
:10359800616269763132305F5F73695F636C617352
:1035A800735F747970655F696E666F45000000002F
:1035B800CC35000890350008583500080000000098
:1035C800B8350008891C00089D1C0008A91D0008C2
:1035D800A91D0008591C0008891B0008791D00084E
:1035E800F51C0008B91C0008537439747970655FBC
:1035F800696E666F000000006C350008F035000841
:1036080008B10181B0B000840000000008B1018158
:10361800B0B000840000000008B10181B0B000849F
:103628000000000008B10181B0B000840000000073
:1036380008B10181B0B000840000000008B1018128
:10364800B0B000840000000008B10181B0B000846F
:04365800000000006E
:10365C0024CDFF7F0100000084D3FF7FB0A813802E
:10366C0068D4FF7F0100000018D5FF7F90FFFF7F1B
:10367C0030D5FF7F94FFFF7F48D5FF7F010000000E
:10368C0078D5FF7FB0B0A8800CD6FF7FB0B0AA80F1
:10369C001CD6FF7FA908B18030D7FF7F0100000046
:1036AC0030E3FF7F70FFFF7F4CE3FF7F74FFFF7FF2
:1036BC0068E3FF7F78FFFF7F84E3FF7F7CFFFF7F62
:1036CC00A0E3FF7F80FFFF7FBCE3FF7FB0B0A8804B
:1036DC0024E4FF7F01000000A4E4FF7FB0AA038074
:1036EC00D0E4FF7F0100000084E6FF7FB0B0AC8027
:1036FC00A8E6FF7F0100000038EAFF7FB0A9028036
:10370C00C8EAFF7FB0B0A88018EBFF7F0100000073
:10371C0020EBFF7FB0B0AA8054EBFF7FAE75B28078
:10372C0024ECFF7FAB3F3A8084ECFF7F010000006C
:10373C008CECFF7FB0B0AA80C8ECFF7F01000000CA
:10374C0070EDFF7FAA0FB280ECEDFF7FB0AF088069
:10375C0088F0FF7F0100000098F0FF7FAC3F0380F2
:10376C0080F3FF7F01000000B0F3FF7FB0AD048059
:08377C00A4F6FF7F010000002C
:0C37840029300008FD070008D50D0008E2
:04379000D507000851
:103794000000024000000240001402400000024009
:1037A40000100240001402400024F4000100000054
:1037B400100000005001000008000000020000009A
:1037C40007000000FFFFFFFF0000020000000000F0
:1037D4000000000000000000400000204000002025
:1037E4004800002048000020500000205000002025
:1037F40058000020580000206000002060000020D5
:103804006800002068000020700000207000002084
:103814007800002078000020800000208000002034
:1038240088000020880000209000002090000020E4
:103834009800002098000020A0000020A000002094
:10384400A8000020A8000020B0000020B000002044
:10385400B8000020B8000020C0000020C0000020F4
:10386400C8000020C8000020D0000020D0000020A4
:10387400D8000020D8000020E0000020E000002054
:10388400E8000020E8000020F0000020F000002004
:10389400F8000020F80000200001002000010020B2
:1038A4000801002008010020100100201001002060
:1038B4001801002018010020200100202001002010
:1038C40028010020280100203001002030010020C0
:1038D4003801002038010020400100204001002070
:1038E4004801002048010020500100205001002020
:1038F40058010020580100206001002060010020D0
:10390400680100206801002070010020700100207F
:10391400780100207801002080010020800100202F
:1039240088010020880100209001002090010020DF
:103934009801002098010020A0010020A00100208F
:10394400A8010020A8010020B0010020B00100203F
:10395400B8010020B8010020C0010020C0010020EF
:10396400C8010020C8010020D0010020D00100209F
:10397400D8010020D8010020E0010020E00100204F
:10398400E8010020E8010020F0010020F0010020FF
:10399400F8010020F80100200002002000020020AD
:1039A400080200200802002010020020100200205B
:1039B400180200201802002020020020200200200B
:1039C40028020020280200203002002030020020BB
:1039D400380200203802002040020020400200206B
:1039E400480200204802002050020020500200201B
:1039F40058020020580200206002002060020020CB
:103A0400680200206802002070020020700200207A
:103A1400780200207802002080020020800200202A
:103A240088020020880200209002002090020020DA
:103A34009802002098020020A0020020A00200208A
:103A4400A8020020A8020020B0020020B00200203A
:103A5400B8020020B8020020C0020020C0020020EA
:103A6400C8020020C8020020D0020020D00200209A
:103A7400D8020020D8020020E0020020E00200204A
:103A8400E8020020E8020020F0020020F0020020FA
:103A9400F8020020F80200200003002000030020A8
:103AA4000803002008030020100300201003002056
:103AB4001803002018030020200300202003002006
:103AC40028030020280300203003002030030020B6
:103AD4003803002038030020400300204003002066
:103AE4004803002048030020500300205003002016
:103AF40058030020580300206003002060030020C6
:103B04006803002068030020700300207003002075
:103B14007803002078030020800300208003002025
:103B240088030020880300209003002090030020D5
:103B34009803002098030020A0030020A003002085
:103B4400A8030020A8030020B0030020B003002035
:103B5400B8030020B8030020C0030020C0030020E5
:103B6400C8030020C8030020D0030020D003002095
:103B7400D8030020D8030020E0030020E003002045
:103B8400E8030020E8030020F0030020F0030020F5
:103B9400F8030020F80300200004002000040020A3
:103BA4000804002008040020100400201004002051
:103BB4001804002018040020200400202004002001
:103BC40028040020280400203004002030040020B1
:103BD40038040020380400205004002000000000B5
:103BE4000000000078070020E007002048080020BB
:103BF40000000000000000000000000000000000C1
:103C040000000000000000000000000000000000B0
:103C140000000000000000000000000000000000A0
:103C24000000000000000000000000000000000090
:103C34000000000000000000000000000000000080
:103C44000000000000000000000000000000000070
:103C54000000000000000000000000000000000060
:103C64000000000000000000000000000000000050
:103C7400000000000000000001000000000000003F
:103C84000E33CDAB34126DE6ECDE05000B00000004
:103C94000000000000000000000000000000000020
:103CA4000000000000000000000000000000000010
:103CB4000000000000000000000000000000000000
:103CC40000000000000000000000000000000000F0
:103CD40000000000000000000000000000000000E0
:103CE40000000000000000000000000000000000D0
:103CF40000000000000000000000000000000000C0
:103D040000000000000000000000000000000000AF
:103D1400000000000000000000000000000000009F
:043D2400B8080020BB
:0400000508000E6180
:00000001FF
